:100000005CC004C275C074C073C072C071C070C0DF
:100010006FC06EC06DC06CC06BC06AC069C00902A1
:100020002200010100801909040000010300000002
:100030000921010100012223000705810308000AAC
:100040001201100100000008C016DB2700010102A8
:1000500000011A0355005300420020004B006500C8
:10006000790063006800610069006E00260361008A
:100070006D006500640065006F0062006100720041
:100080006100670069006F006C0061002E006D0068
:1000900065000403090405010906A101050719E02B
:1000A00029E715002501750195088102950175085C
:1000B0002565190029658100C00011241FBECFE508
:1000C000D2E0DEBFCDBF10E0A0E6B0E0E8E6FCE0A5
:1000D00002C005900D92A636B107D9F710E0A6E64A
:1000E000B0E001C01D92A13BB107E1F71ED5BAC532
:1000F00087CFCF93C62F2091800024FF07C0309177
:10010000810028E823272093810003C02AE520935B
:100110008000DC01E2E8F0E09C2F9E0F8D9181933E
:10012000892F8E1B1816D4F36C2F82E890E057D1DC
:10013000CC5FC0938000CF910895CF93DF936091FF
:100140009100635067FDC4C080918E00CCE0D0E088
:10015000C81BD109CB56DF4F80918D008D3209F03D
:10016000A6C0683009F0B2C083EC809375008AE5C0
:1001700080936100109267008881807639F0CE010B
:10018000A3D2982F8F3F09F481C087C09A81109223
:100190007E008981811106C010927F002EE730E039
:1001A00092E06FC0853019F49093920067C086305A
:1001B00009F04EC08B81813041F480E490E090934F
:1001C000900080938F0092E13FC0823041F48EE135
:1001D00090E09093900080938F0092E235C083303E
:1001E000F1F4911108C082E990E09093900080931F
:1001F0008F0094E029C0913041F48CE690E0909318
:10020000900080938F0096E21FC09230E1F482E567
:1002100090E09093900080938F009AE115C0813216
:1002200041F480E390E09093900080938F0099E0F8
:100230000BC0823241F486E990E090939000809365
:100240008F0093E201C090E080E48093670025C0B6
:10025000883069F0893019F4909394000FC08A3087
:1002600049F08B3059F48BE48093810007C024E976
:1002700030E002C02EE730E091E003C02EE730E02E
:1002800090E03093900020938F0007C0888187FD15
:100290009E8180E88093670007C08F81811104C030
:1002A0008E81891708F4982F909360000FC0809179
:1002B000670087FF0BC0CE0100D38F3F21F48EE192
:1002C0008093610003C08111109260001092910030
:1002D0008091610084FF48C0809160008F3F09F4E5
:1002E00043C0C82F893008F0C8E08C1B80936000A1
:1002F0009091750088E8892780937500CC2339F1A7
:1003000080918F00909190002091670026FF0BC094
:10031000A6E7B0E0FC012C2F280F34913D933196D5
:100320002E13FBCF09C0DC01E6E7F0E02C2F2E0FE7
:100330003D9131932E13FCCF2FEF2C0F30E02F5F28
:100340003F4F820F931F9093900080938F006C2FEC
:1003500086E790E044D064E06C0F6C3019F08FEFCA
:10036000809360006093610084E196B3957031F4EE
:100370008150D9F71092920010928C00C1E0811147
:10038000C0E0809166008C1729F0C11101C0DDD258
:10039000C0936600DF91CF91089585B7836085BFD4
:1003A0008BB780648BBFE0E8F0E08BE481838AE563
:1003B00080830895A82FB92F80E090E041E050EAB3
:1003C000609530E009C02D9182279795879510F0B0
:1003D00084279527305EC8F36F5FA8F30895EADF9E
:1003E0008D939D930895A6E088279927AA9569F093
:1003F0000197E1F3B099FCCFB09BFECF81E0992744
:10040000A6B3019611F0A570D9F70895CF93CFB791
:10041000CF93C395B09BE9F7B09B0BC0B09B09C0CD
:10042000B09B07C0B09B05C0B09B03C0B09B01C090
:10043000D5C00F92DF93C0918E00DD27CB56DF4FE2
:10044000012EB09B03C0DF910F90E6CF2F930F9347
:100450001F934F932FEF4F6F06B300FB20F95F936D
:100460003F9350E03BE065C016B30126502950FD94
:10047000C89556B3012700FB25F92F7306B3B1F0D9
:100480005027102710FB26F906B22230F0F000C0EA
:1004900016B3012700FB27F90126502906B22430A4
:1004A000E8F54F77206816B30000F6CF50274F7D50
:1004B000206206B2102F000000C006B300265029AB
:1004C000102710FB26F906B2E2CF4F7B06B320645B
:1004D00000C0DACF01265029157006B269F14E7FAF
:1004E0002160012F16B328C0002650294D7F06B287
:1004F0002260102F29C0012650294B7F06B22460AC
:10050000012F2DC016B301265029477F2860000017
:1005100006B22EC04F7E06B3206130C0422706B31C
:10052000499300265029102706B24FEF10FB20F9FF
:10053000297F16B379F2157059F10126502906B2B8
:10054000012700FB21F9237F06B371F20026502911
:100550003150D0F006B2102710FB22F9277E16B3D7
:1005600051F201265029012700FB06B223F92F7C06
:1005700049F2000006B3102710FB24F90026502989
:1005800006B22F7939F270CF10E41ABF002719C0D4
:100590003B503195C31BD04010E41ABF0881033C87
:1005A00009F10B34F9F020918C001981110F12130D
:1005B000EDCF4A81441F093651F10D3211F0013E51
:1005C00029F7009393003F915F914F911F910F91F5
:1005D0002F91DF910F90CAB7C6FD1BCFCF91CFBF30
:1005E000CF91189520919300222369F310919100E7
:1005F000112379F534307AF13093910020938D00F6
:1006000010918E003BE0311B30938E0024C000918E
:1006100091000130F4F40AE54F7049F43091610023
:1006200034FD1AC000936100C5E7D0E019C03091D5
:10063000800034FD11C000938000C1E8D0E010C0FC
:10064000052710E000C021C0052710E0C89508BBB1
:1006500014C03AE501C032ED032EC0E0D0E032E034
:1006600017B31560C09A08B317BB55E020E84FEFE9
:1006700020FF052708BB279517951C3F28F700008A
:100680004552B0F720FF0527279508BB17951C3F5B
:10069000B8F629913A9561F70A7F10919200110FEF
:1006A00008BBC250D04011F010938C0010E41ABF68
:1006B000016017B31A7F402F4A7F54E05A95F1F733
:1006C00008BB17BB48BB7FCFAF92BF92CF92DF92E0
:1006D000EF92FF920F931F93CF93DF93FC019081D2
:1006E000907681819032F9F4823089F08A30B9F0C5
:1006F000813009F0D6C083E790E09093900080931A
:100700008F00109273001092740082E0CBC082E7D9
:1007100090E09093900080938F0081E0C3C083812C
:1007200080937200BEC0843009F087C0C680D78035
:10073000C281D381D093B000C093AF0081E0C81ACA
:10074000D108D0926900C09268007E01EE0CFF1CB7
:10075000F092AC00E092AB0089E090E09093AE00A4
:100760008093AD00C70153D25C0101E010E0C017D7
:10077000D10798F0C80181509048880F991F47D23F
:100780002091AD003091AE00820F931F9093AE0088
:100790008093AD000F5F1F4FEACF8E01C0E0D0E025
:1007A00082E0E80EF11C033011053CF40F5F1F4F8F
:1007B000C7012DD2C80FD91FF3CF209731F4109263
:1007C0006B0010926A008FEF6DC0AC14BD04B8F0DE
:1007D00000E010E02EC00091AD001091AE000C0FB3
:1007E0001D1FC8018A0D9B1D0AD2682F8F3F39F04B
:1007F0008091680090916900800F911F0DD2219720
:10080000D7FFE9CFDCCFE090AD00F090AE00E00E76
:10081000F11EC7018A0D9B1DF2D1682F8F3F39F061
:1008200080916800909169008E0D9F1DF5D10F5F3A
:100830001F4F0C171D0739F7C2CF8530C1F4E28076
:10084000F38000E010E0C0E0D0E0EC16FD0631F0EF
:10085000CE01880F991FDBD1080F191F2196C430D4
:10086000D10599F700936E0010936F0012C0863087
:10087000C1F4909163008091640090936E00809326
:100880006F0090916C0080916D0090937000809348
:1008900071008EE690E09093900080938F0084E04A
:1008A00001C080E0DF91CF911F910F91FF90EF90F9
:1008B000DF90CF90BF90AF900895EF92FF920F938B
:1008C0001F93CF93DF937C01C62FC49A6091680079
:1008D000709169008091AB009091AC00AFD187011D
:1008E000D0E020916A0030916B0080916800909177
:1008F00069002817390728F028173907E9F080E040
:100900001DC0A8014E195F094C175D07A8F7F80133
:1009100061918F018091AD009091AE00820F931F85
:100920007BD120916A0030916B002F5F3F4F309355
:100930006B0020936A00D5CFC49881E0DF91CF91FE
:100940001F910F91FF90EF9008950895AF92BF927D
:10095000CF92DF92EF92FF920F931F93CF93DF938B
:1009600000D000D0CDB7DEB7A8958C83E6DB00E0E1
:1009700010E04C815FEB540F2FE9240F30ED340F62
:100980008CE2F82E9DEEE92EE40E67E2D62E73EC93
:10099000C72EC40EE3EABE2EB40EF2E0AF2E023034
:1009A0001105E9F18091800084FFF9CF011511054F
:1009B00019F55A3118F4A092730002C01092730016
:1009C0002A3118F4B09274001BC05A3118F4C09246
:1009D000740016C03A3040F4403319F4D0927400D9
:1009E0000FC0E09274000CC0403219F4F092740011
:1009F00007C04093740004C01092730010927400FA
:100A000062E083E790E02A833B834C83598371DB68
:100A10000F5F1F4F59814C813B812A81C0CF0F90BE
:100A20000F900F900F90DF91CF911F910F91FF903A
:100A3000EF90DF90CF90BF90AF900895CF92DF926C
:100A4000EF92FF920F931F93CF93DF938C01880F48
:100A5000991F9093AC008093AB00D9D06C01C1E09A
:100A6000D0E049E0E42EF12C0C171D0758F0CE0120
:100A700081509048880F991FCAD0E80EF91EA8959A
:100A80002196F2CFC0E0D0E0CC15DD0539F0CE01E3
:100A90008E0D9F1DB4D05ADF2196F6CFCD2B11F0CD
:100AA00080E054DF80E090E008171907C8F0C49A8E
:100AB000A89527EA36E94CE0215030404040E1F764
:100AC00000C00000A895C49827EA36E94CE0215000
:100AD00030404040E1F700C00000A8950196E4CF07
:100AE000DF91CF911F910F91FF90EF90DF90CF900A
:100AF000089585E090E0C49AA8952FE039E045E09C
:100B0000215030404040E1F700C00000A895C49853
:100B10002FE039E045E0215030404040E1F700C08F
:100B20000000A895019739F7089588E090E067D014
:100B3000813071F0C0E0D0E060E070E0CE017ED0A6
:100B40002296C830D105C1F761E088E090E064D01A
:100B5000BC9AC19AC39ACDDFB89A84E190E0E2EBE7
:100B6000F1EF3197F1F700C000000197C1F7B89895
:100B70009EE088E10FB6F894A89581BD0FBE91BDA7
:100B80000CDC7894C0E0D0E0A895D7DAB19919C010
:100B9000D11118C080E090E0B1990EC00196E1E259
:100BA000F1EA3197F1F700C00000A895843691056D
:100BB00099F782E090E002C080E090E03FDFD1E072
:100BC00001C0D0E0B39B02C0C0E0DECFC111DCCFDA
:100BD00080E090E0B3990EC00196E1E2F1EA31972E
:100BE000F1F700C00000A8958436910599F783E0DD
:100BF00090E002C081E090E021DFC1E0C5CFE19943
:100C0000FECF9FBB8EBBE09A99278DB30895A8E1D4
:100C1000B0E042E050E018C0262FE199FECF9FBB24
:100C20008EBBE09A01970DB2021639F01CBA2DBBAB
:100C30000FB6F894E29AE19A0FBE08950196272F15
:100C4000ECDFEACFDC01CB01FC01E199FECF06C06D
:100C5000FFBBEEBBE09A31960DB20D924150504071
:080C6000B8F70895F894FFCFE6
:060C6800FF5AFF0100002D
:00000001FF
