:100000005DC005C276C075C074C073C072C071C0D7
:1000100070C06FC06EC06DC06CC06BC06AC009029A
:100020002200010100801909040000010300000002
:100030000921010100012223000705810308000AAC
:100040001201100100000008C016DB2700010102A8
:1000500000011A0341005400740069006E00790029
:100060003800350020005500530042002803690085
:100070006E00670061006D006500640065006F0040
:100080002E006E006F002D00690070002E006F00C2
:10009000720067000403090405010906A1010507B0
:1000A00019E029E7150025017501950881029501E0
:1000B00075082565190029658100C00011241FBE3F
:1000C000CFE5D2E0DEBFCDBF10E0A0E6B0E0ECE1CE
:1000D000FCE002C005900D92A636B107D9F710E0FA
:1000E000A6E6B0E001C01D92AD3AB107E1F7F8D441
:1000F00093C586CFCF93C62F20917C0024FF07C0E5
:1001000030917D0028E8232720937D0003C02AE555
:1001100020937C00DC01EEE7F0E09C2F9E0F8D9198
:100120008193892F8E1B1816D4F36C2F8EE790E0E5
:1001300057D1CC5FC0937C00CF910895CF93DF93CC
:1001400060918D00635067FDC4C080918A00CCE04F
:10015000D0E0C81BD109CF56DF4F809189008D3286
:1001600009F0A6C0683009F0B2C083EC809371003A
:100170008AE580936100109267008881807639F06B
:10018000CE01A3D2982F8F3F09F481C087C09A81F6
:1001900010927A008981811106C010927B002AE7B3
:1001A00030E092E06FC0853019F490938E0067C004
:1001B000863009F04EC08B81813041F480E490E0BC
:1001C00090938C0080938B0092E13FC0823041F489
:1001D0008EE190E090938C0080938B0092E235C08A
:1001E0008330F1F4911108C084E990E090938C0081
:1001F00080938B0094E029C0913041F48CE690E02C
:1002000090938C0080938B0098E21FC09230E1F4B1
:1002100082E590E090938C0080938B009AE115C06A
:10022000813241F480E390E090938C0080938B00C6
:1002300099E00BC0823241F488E990E090938C0001
:1002400080938B0093E201C090E080E4809367008C
:1002500025C0883069F0893019F4909390000FC060
:100260008A3049F08B3059F48BE480937D0007C0CD
:1002700020E930E002C02AE730E091E003C02AE73D
:1002800030E090E030938C0020938B0007C0888191
:1002900087FD9E8180E88093670007C08F81811170
:1002A00004C08E81891708F4982F909360000FC0C6
:1002B0008091670087FF0BC0CE01F7D28F3F21F4FA
:1002C0008EE18093610003C0811110926000109252
:1002D0008D008091610084FF48C0809160008F3F55
:1002E00009F443C0C82F893008F0C8E08C1B809304
:1002F00060009091710088E8892780937100CC2379
:1003000039F180918B0090918C002091670026FF3D
:100310000BC0A2E7B0E0FC012C2F280F34913D93D5
:1003200031962E13FBCF09C0DC01E2E7F0E02C2F61
:100330002E0F3D9131932E13FCCF2FEF2C0F30E079
:100340002F5F3F4F820F931F90938C0080938B0001
:100350006C2F82E790E044D064E06C0F6C3019F0B1
:100360008FEF809360006093610084E196B3957095
:1003700031F48150D9F710928E0010928800C1E0BC
:100380008111C0E0809166008C1729F0C11101C075
:10039000D4D2C0936600DF91CF91089585B7836072
:1003A00085BF8BB780648BBFECE7F0E08BE4818383
:1003B0008AE580830895A82FB92F80E090E041E07E
:1003C00050EA609530E009C02D9182279795879576
:1003D00010F084279527305EC8F36F5FA8F3089567
:1003E000EADF8D939D930895A6E088279927AA9523
:1003F00069F00197E1F3B099FCCFB09BFECF81E0AB
:100400009927A6B3019611F0A570D9F70895CF9357
:10041000CFB7CF93C395B09BE9F7B09B0BC0B09B10
:1004200009C0B09B07C0B09B05C0B09B03C0B09B88
:1004300001C0D5C00F92DF93C0918A00DD27CF564F
:10044000DF4F012EB09B03C0DF910F90E6CF2F93BB
:100450000F931F934F932FEF4F6F06B300FB20F9BD
:100460005F933F9350E03BE065C016B301265029EF
:1004700050FDC89556B3012700FB25F92F7306B32D
:10048000B1F05027102710FB26F906B22230F0F009
:1004900000C016B3012700FB27F90126502906B238
:1004A0002430E8F54F77206816B30000F6CF5027C8
:1004B0004F7D206206B2102F000000C006B3002658
:1004C0005029102710FB26F906B2E2CF4F7B06B366
:1004D000206400C0DACF01265029157006B269F1F8
:1004E0004E7F2160012F16B328C0002650294D7F72
:1004F00006B22260102F29C0012650294B7F06B278
:100500002460012F2DC016B301265029477F286093
:10051000000006B22EC04F7E06B3206130C04227D5
:1005200006B3499300265029102706B24FEF10FB5F
:1005300020F9297F16B379F2157059F10126502957
:1005400006B2012700FB21F9237F06B371F20026D2
:1005500050293150D0F006B2102710FB22F9277E27
:1005600016B351F201265029012700FB06B223F9E8
:100570002F7C49F2000006B3102710FB24F9002657
:10058000502906B22F7939F270CF10E41ABF002734
:1005900019C03B503195C31BD04010E41ABF0881ED
:1005A000033C09F10B34F9F0209188001981110FF7
:1005B0001213EDCF4A81441F093651F10D3211F06B
:1005C000013E29F700938F003F915F914F911F915A
:1005D0000F912F91DF910F90CAB7C6FD1BCFCF911E
:1005E000CFBFCF91189520918F00222369F31091EE
:1005F0008D00112379F534307AF130938D002093FA
:10060000890010918A003BE0311B30938A0024C09E
:1006100000918D000130F4F40AE54F7049F43091F7
:10062000610034FD1AC000936100C1E7D0E019C039
:1006300030917C0034FD11C000937C00CDE7D0E008
:1006400010C0052710E000C021C0052710E0C895A4
:1006500008BB14C03AE501C032ED032EC0E0D0E083
:1006600032E017B31560C09A08B317BB55E020E815
:100670004FEF20FF052708BB279517951C3F28F74C
:1006800000004552B0F720FF0527279508BB1795B6
:100690001C3FB8F629913A9561F70A7F10918E00B8
:1006A000110F08BBC250D04011F01093880010E425
:1006B0001ABF016017B31A7F402F4A7F54E05A9542
:1006C000F1F708BB17BB48BB7FCFAF92BF92CF9269
:1006D000DF92EF92FF920F931F93CF93DF93FC0172
:1006E0009081907681819032F1F4823081F08A306D
:1006F000B1F0813009F0CDC08FE690E090938C008E
:1007000080938B0010926F0010927000C0C08EE634
:1007100090E090938C0080938B0081E0BBC083813C
:1007200080936E00B6C0843009F087C0C680D78041
:10073000C281D381D093AC00C093AB0081E0C81AD2
:10074000D108D0926900C09268007E01EE0CFF1CB7
:10075000F092A800E092A70089E090E09093AA00B0
:100760008093A900C7012DD25C0101E010E0C01701
:10077000D10798F0C80181509048880F991F21D265
:100780002091A9003091AA00820F931F9093AA0094
:100790008093A9000F5F1F4FEACF8E01C0E0D0E029
:1007A00082E0E80EF11C033011053CF40F5F1F4F8F
:1007B000C70107D2C80FD91FF3CF209731F4109289
:1007C0006B0010926A008FEF65C0AC14BD04B8F0E6
:1007D00000E010E02EC00091A9001091AA000C0FBB
:1007E0001D1FC8018A0D9B1DE4D1682F8F3F39F072
:1007F0008091680090916900800F911FE7D1219747
:10080000D7FFE9CFDCCFE090A900F090AA00E00E7E
:10081000F11EC7018A0D9B1DCCD1682F8F3F39F087
:1008200080916800909169008E0D9F1DCFD10F5F60
:100830001F4F0C171D0739F7C2CF8530C1F4E28076
:10084000F38000E010E0C0E0D0E0EC16FD0631F0EF
:10085000CE01880F991FB5D1080F191F2196C430FA
:10086000D10599F700936C0010936D000AC0863093
:1008700081F4909163008091640090936C00809368
:100880006D008CE690E090938C0080938B0082E06A
:1008900001C080E0DF91CF911F910F91FF90EF9009
:1008A000DF90CF90BF90AF900895EF92FF920F939B
:1008B0001F93CF93DF937C01C62FC49A6091680089
:1008C000709169008091A7009091A80091D1870153
:1008D000D0E020916A0030916B0080916800909187
:1008E00069002817390728F028173907E9F080E050
:1008F0001DC0A8014E195F094C175D07A8F7F80144
:1009000061918F018091A9009091AA00820F931F9D
:100910005DD120916A0030916B002F5F3F4F309383
:100920006B0020936A00D5CFC49881E0DF91CF910E
:100930001F910F91FF90EF9008950895AF92BF928D
:10094000CF92DF92EF92FF920F931F93CF93DF939B
:1009500000D000D0CDB7DEB7A8958C83EFDB00E0E8
:1009600010E04C815FEB540F2FE9240F30ED340F72
:100970008CE2F82E9DEEE92EE40E67E2D62E73ECA3
:10098000C72EC40EE3EABE2EB40EF2E0AF2E023044
:100990001105E9F180917C0084FFF9CF0115110563
:1009A00019F55A3118F4A0926F0002C010926F002E
:1009B0002A3118F4B09270001BC05A3118F4C0925A
:1009C000700016C03A3040F4403319F4D0927000F1
:1009D0000FC0E09270000CC0403219F4F092700029
:1009E00007C04093700004C010926F001092700016
:1009F00062E08FE690E02A833B834C8359837ADB65
:100A00000F5F1F4F59814C813B812A81C0CF0F90CE
:100A10000F900F900F90DF91CF911F910F91FF904A
:100A2000EF90DF90CF90BF90AF900895CF92DF927C
:100A3000EF92FF920F931F93CF93DF938C01880F58
:100A4000991F9093A8008093A700BBD06C01C1E0D0
:100A5000D0E049E0E42EF12C0C171D0750F0CE0138
:100A600081509048880F991FACD0E80EF91E21964E
:100A7000F3CFC0E0D0E0CC15DD0539F0CE018E0D0E
:100A80009F1D97D05BDF2196F6CFCD2B11F080E034
:100A900055DF80E090E008171907C8F0C49AA895C0
:100AA00027EA36E94CE0215030404040E1F700C0F1
:100AB0000000A895C49827EA36E94CE02150304060
:100AC0004040E1F700C00000A8950196E4CFDF9117
:100AD000CF911F910F91FF90EF90DF90CF900895ED
:100AE00088E090E066D0813071F0C0E0D0E060E056
:100AF00070E0CE017DD02296C830D105C1F761E00B
:100B000088E090E063D0B89A84E190E0E2EBF1EF06
:100B10003197F1F700C000000197C1F7B898BC9A6F
:100B2000C19AC39A9EE088E10FB6F894A89581BD5A
:100B30000FBE91BD33DC7894C0E0D0E0A895FEDA1A
:100B4000B19919C0D11118C080E090E0B1990EC0E0
:100B50000196E1E2F1EA3197F1F700C00000A895B3
:100B6000883C910599F782E090E002C080E090E037
:100B70005DDFD1E001C0D0E0B39B02C0C0E0DECFBA
:100B8000C111DCCF80E090E0B3990EC00196E1E2A4
:100B9000F1EA3197F1F700C00000A895883C910573
:100BA00099F783E090E002C081E090E03FDFC1E090
:100BB000C5CFE199FECF9FBB8EBBE09A99278DB33D
:100BC0000895A8E1B0E042E050E018C0262FE19976
:100BD000FECF9FBB8EBBE09A01970DB2021639F093
:100BE0001CBA2DBB0FB6F894E29AE19A0FBE089595
:100BF0000196272FECDFEACFDC01CB01FC01E19964
:100C0000FECF06C0FFBBEEBBE09A31960DB20D924F
:0C0C100041505040B8F70895F894FFCF11
:060C1C00FF5AFF01000079
:00000001FF
